:020000040800F2
:10000000700C00208901000811280008B1230008A5
:100010000D2800088F020008832F00080000000050
:10002000000000000000000000000000652800083B
:10003000C5020008000000003928000867280008F1
:10004000A3010008A3010008A3010008A301000800
:10005000A3010008A3010008A3010008A3010008F0
:10006000A3010008A3010008A3010008A3010008E0
:10007000A301000895020008A3010008A5020008DA
:10008000B5020008A3010008A3010008A3010008AD
:10009000A3010008A3010008A3010008A3010008B0
:1000A000A3010008A3010008A3010008A3010008A0
:1000B000F9280008A3010008A3010008A301000813
:1000C000A3010008A3010008A3010008A301000880
:1000D000A3010008152F0008252F0008352F000860
:1000E000A3010008A3010008A301000800F002F822
:1000F00000F03AF80AA090E8000C82448344AAF188
:100100000107DA4501D100F02FF8AFF2090EBAE885
:100110000F0013F0010F18BFFB1A43F0010318473B
:10012000082F0000282F0000103A24BF78C878C19B
:10013000FAD8520724BF30C830C144BF04680C60ED
:10014000704700000023002400250026103A28BF35
:1001500078C1FBD8520728BF30C148BF0B60704739
:100160001FB51FBD10B510BD00F058F81146FFF7C0
:10017000F7FF02F025FF00F076F803B4FFF7F2FF77
:1001800003BC00F07DF8000009488047094800479B
:10019000FEE7FEE7FEE7FEE7FEE7FEE7FEE7FEE737
:1001A000FEE7FEE704480549054A064B7047000094
:1001B000F5280008ED00000870060020700C0020F3
:1001C00070080020700800204FF0000200B51346B0
:1001D00094469646203922BFA0E80C50A0E80C5067
:1001E000B1F12001BFF4F7AF090728BFA0E80C5018
:1001F00048BF0CC05DF804EB890028BF40F8042B11
:1002000008BF704748BF20F8022B11F0804F18BF7D
:1002100000F8012B7047704770477047754600F033
:100220002BF8AE4605006946534620F00700854688
:1002300018B020B5FFF7B6FFBDE820404FF000062C
:100240004FF000074FF000084FF0000B21F00701BE
:10025000AC46ACE8C009ACE8C009ACE8C009ACE801
:10026000C0098D46704710B50446AFF300802046A4
:10027000BDE81040FFF781BF00487047100600201E
:1002800001491820ABBEFEE726000200704700BF00
:10029000FEE7000010B5024800F09CF810BD000019
:1002A000F402002010B5024800F094F810BD0000E0
:1002B0006C02002010B5024800F08CF810BD000060
:1002C000B0020020704772B600BFFEE70146002270
:1002D00091F82100022808D00420886300BF002084
:1002E00081F8200000BF012070470868006820F0F6
:1002F0000E000B6818600868006820F001000B68A9
:10030000186091F8403001209840CB6B5860012074
:1003100081F8210000BF002081F8200000BF1046B6
:10032000E2E7000070B50446002594F82100022899
:1003300003D00420A063012548E02068006820F075
:100340000E00216808602068006820F00100216824
:1003500008601F492068884201D1012026E01C491D
:1003600014312068884201D110201FE0184928313B
:100370002068884201D1801518E015493C31206879
:10038000884201D1801411E011495031206888421F
:1003900002D14FF4803009E00D4964312068884271
:1003A00002D14FF4801001E04FF080700849083905
:1003B0004860012084F8210000BF002084F820005C
:1003C00000BF606B10B12046616B8847284670BD46
:1003D0000800024070B50446E06B056820680668B6
:1003E00094F84010042088402840002846D006F0A9
:1003F0000400002842D02068006800F0200028B9DE
:100400002068006820F004002168086057492068CF
:10041000884201D1042027E05449143120688842E1
:1004200001D1402020E0514928312068884201D183
:10043000001519E04D493C312068884202D14FF443
:10044000804011E0494950312068884202D14FF480
:10045000802009E0454964312068884202D14FF488
:10046000800001E04FF08060404908394860E06A50
:1004700000287AD02046E16A884776E094F8401058
:10048000022088402840A0B306F0020088B320680C
:10049000006800F0200040B92068006820F00A00E1
:1004A00021680860012084F82100304920688842D2
:1004B00001D1022028E02D4914312068884201D161
:1004C000202021E0294928312068884201D14015A7
:1004D0001AE026493C312068884202D14FF400508E
:1004E00012E0224950312068884203D14FF4003095
:1004F0000AE017E01D4964312068884202D14FF4B8
:10050000001001E04FF0007018490839486000BF42
:10051000002084F8200000BFA06A30B32046A16A02
:10052000884722E094F84010082088402840E0B135
:1005300006F00800C8B12068006820F00E002168AD
:10054000086094F8401001208840E16B4860012069
:10055000A06384F8210000BF002084F8200000BFC1
:10056000206B10B12046216B884770BD0800024007
:100570000146002209B901207047164B0868C01ACD
:100580001423B0FBF3F08000086412480838C863F5
:10059000022081F821000868026843F6F070824367
:1005A000D1E901031843CB6818430B6918434B6921
:1005B00018438B691843CB691843024308680260EB
:1005C00000208863012081F82100002081F82000AC
:1005D00000BFD1E7080002402DE9F847034600229A
:1005E00094466EE14FF0010808FA02F4D1F8008059
:1005F00008EA0400A0427DD1DFF8DCA2D1F8048033
:10060000A8EB0A09D0453AD014DCB8F1030F50D05A
:1006100009DCB8F1000F31D0B8F1010F1CD0B8F1EE
:10062000020F49D120E0B8F1110F18D0B8F1120F24
:1006300042D11EE0B9F5881F25D006DCB9F5803F10
:1006400020D0B9F5801F37D11AE0B9F5001F18D0B6
:10065000B9F5041F30D117E0D1F80CC02DE0D1F866
:100660000C8008F1040C28E0D1F80C8008F1080C8B
:1006700023E0D1F80C8008F10C0C1EE000BF00BF95
:1006800000BF00BF00BF00BFD1F80880B8F1000F65
:1006900002D14FF0040C0BE0D1F80880B8F1010F43
:1006A00003D14FF0080C1C6102E04FF0080C5C61B4
:1006B00003E04FF0000C00E000BF00BFFF2801D8AE
:1006C000984601E003F104084646FF2802D84FEAA5
:1006D000820803E0A2F108084FEA88084746D6F8E6
:1006E00000804FF00F0909FA07F928EA09080CFA07
:1006F00007F900E088E048EA0908C6F80080D1F868
:10070000048008F08058B8F1805F7DD100BFDFF829
:10071000CC81D8F8188048F00108DFF8C091C9F8FA
:100720001880C846D8F8188008F00108CDF8008075
:1007300000BF00BF4FEAB9384FEA920958F8295074
:100740004FEA82784FEA18794FF00F0808FA09F853
:1007500025EA0805DFF88881434502D14FF00008FB
:1007600016E0DFF88081434502D14FF001080FE029
:10077000DFF87481434502D14FF0020808E0DFF84A
:100780006C81434502D14FF0030801E04FF00408AB
:100790004FEA82794FEA197908FA09F848EA05051B
:1007A000DFF84C814FEA920948F82950D1F80480CB
:1007B00008F48018B8F5801F0AD1DFF83881D8F81E
:1007C000008048EA0008DFF82C91C9F8008009E0B1
:1007D000DFF82081D8F8008028EA0008DFF81491BB
:1007E000C9F80080D1F8048008F40018B8F5001F9B
:1007F00010D1DFF8008108F10408D8F8008048EA39
:100800000008DFF8F09000E05AE009F10409C9F8A7
:1008100000800DE0DFF8DC8008F10408D8F80080E3
:1008200028EA0008DFF8CC9009F10409C9F8008033
:10083000D1F8048008F40038B8F5003F0ED1DFF895
:10084000B480A8F10408D8F8008048EA0008DFF86E
:10085000A490A9F10409C9F800800DE0DFF89480A4
:10086000A8F10408D8F8008028EA0008DFF884908E
:10087000A9F10409C9F80080D1F8048008F480388F
:10088000B8F5803F0ED1DFF86C80A8F10808D8F8E1
:10089000008048EA0008DFF85C90A9F10809C9F86F
:1008A00000800DE0DFF84C80A8F10808D8F800803F
:1008B00028EA0008DFF83C90A9F10809C9F800808F
:1008C000521CD1F8008028FA02F8B8F1000F7FF42A
:1008D00089AEBDE8F887000000001110001002404A
:1008E00000080140000C01400010014000140140CC
:1008F00008000140080401400AB1016101E00B0455
:100900000361704701480068704700000000002044
:1009100070B504460CB9012070BD94F83D0028B9AB
:10092000002084F83C00204600F0DAF8242084F807
:100930003D002068006820F0010021680860206800
:10094000006840F40040216808602068006820F4D6
:1009500000402168086000F0E9FB05465C496068DA
:10096000884206D85B48854201D2012007E000207A
:1009700005E05948854201D2012000E0002001280D
:1009800000D1C9E75548B5FBF0F62068406820F073
:100990003F003043216848604D496068884201D873
:1009A000701C07E04FF4967070434FF47A71B0FBFF
:1009B000F1F0401C2168096A21F03F0108432168D9
:1009C000086243496068884214D8681E616849001B
:1009D000B0FBF1F0401CC0F30B00042801D204204E
:1009E0003DE0681E61684900B0FBF1F0401CC0F3B7
:1009F0000B0034E0A06838B9681E616801EB410162
:100A0000B0FBF1F0401C0AE0681E616801EBC10216
:100A100002EB0111B0FBF1F0401C40F48040C0F348
:100A20000B0008B901201AE0A06848B9681E616887
:100A300001EB4101B0FBF1F0401CC0F30B000CE0F6
:100A4000681E616801EBC10202EB0111B0FBF1F01D
:100A5000401CC0F30B0040F4804040F4004021688B
:100A6000C9694CF6FF72914308432168C861D4E913
:100A7000070108432168096821F0C0010843216883
:100A80000860D4E9031008432168896848F2FF32FE
:100A90009143084321688860D4E90501084321682F
:100AA000C96821F0FF0108432168C8602068006818
:100AB00040F001002168086000202064202084F8B4
:100AC0003D000020206384F83E0000BF24E70000C2
:100AD000A086010080841E0000093D0040420F00F6
:100AE00010B586B004460020029003900490059053
:100AF00015492068884225D100BF1448806940F01C
:100B00000800124988610846806900F008000190D9
:100B100000BF00BFC0200290122003900320059068
:100B200002A90B48FFF758FD00BF0848C06940F410
:100B300000100649C8610846C06900F40010019021
:100B400000BF00BF06B010BD0054004000100240BE
:100B5000000C014003480068034909780844014932
:100B600008607047000000200800002010B5084809
:100B7000006840F0100006490860032000F0A8F863
:100B80000F2000F007F800F02BF8002010BD000047
:100B90000020024070B504460E4800784FF47A7188
:100BA000B1FBF0F00C490968B1FBF0F5284600F004
:100BB000EBFD08B1012070BD102C07D200222146A8
:100BC000501E00F047F80548046001E00120F2E7FC
:100BD0000020F0E7080000200C00002004000020A6
:100BE00008B500BF1148806940F001000F498861D5
:100BF0000846806900F00100009000BF00BF00BF00
:100C00000846C06940F08050C8610846C06900F0DD
:100C10008050009000BF00BF00BF0549486820F029
:100C2000E06040F00070486000BF08BD0010024066
:100C30000000014001460846002809DB00F01F03C0
:100C400001229A4043099B0003F1E023C3F80021ED
:100C500000BF70472DE9F05F80460D46164600271D
:100C600002F092F9074639462A46334601F007005A
:100C7000C0F1070ABAF1040F02D94FF0040A01E0EB
:100C8000C0F1070AD14600F1040ABAF1070F02D2F7
:100C90004FF0000A01E0A0F1030AD4464FF0010A28
:100CA0000AFA09FAAAF1010A0AEA020A0AFA0CFA8D
:100CB0004FF0010B0BFA0CFBABF1010B0BEA030B32
:100CC0004AEA0B042146404602F066F9BDE8F09F6F
:100CD00000BF00F00702064B19684FF6FF031940EA
:100CE000044B0B4343EA0221014B196000BF7047DC
:100CF0000CED00E00000FA0570B504460CB90120C7
:100D000070BD94F8910228B9002084F89002204622
:100D100000F090F8032084F89102002161712068AE
:100D200002F022F994E80F0002F00CF920B1022041
:100D300084F891020120E3E70021206802F01EF907
:100D400020B1022084F891020120D9E700252AE091
:100D5000012105EB850204F1100000EBC200417097
:100D600005EB850104F1100000F83150002105EB7E
:100D7000850200EBC200C17005EB850204F1100092
:100D800000EBC200016105EB850204F1100000EBED
:100D9000C200416105EB850204F1100000EBC200C6
:100DA0008161681CC5B22079A842D1DC00252AE007
:100DB000002105EB850204F5A87000EBC20041702C
:100DC00005EB850104F5A87000F83150002105EB12
:100DD000850200EBC200C17005EB850204F5A87026
:100DE00000EBC200016105EB850204F5A87000EB81
:100DF000C200416105EB850204F5A87000EBC2005A
:100E00008161681CC5B22079A842D1DC94E80F004A
:100E100002F09FF820B1022084F8910201206FE7D0
:100E200000206073012084F89102206802F08EF89F
:100E3000002065E708B5094A016891420DD100BF5D
:100E40000749C96941F40001054AD1611146C969E0
:100E500001F40001009100BF00BF08BD005C00402C
:100E600000100240F8B5044600260025207800F066
:100E7000010000286BD000274348C06900F0805073
:100E800070B900BF4048C06940F080503E49C86119
:100E90000846C06900F08050009000BF00BF0127E5
:100EA0003A48006800F48070B0B93848006840F4EF
:100EB000807036490860FFF725FD064606E0FFF71B
:100EC00021FD801B642801D90320F8BD2F4800684C
:100ED00000F480700028F2D02B48006A00F44075BE
:100EE0002DB3A08800F44070A84220D02648006AA4
:100EF00020F440750120264908600020086022483F
:100F0000056205F0010090B1FFF7FCFC064608E021
:100F1000FFF7F8FC801B41F28831884201D9032099
:100F2000D3E71948006A00F002000028F0D0164804
:100F3000006A20F440706168084313490862012F79
:100F400004D10846C06920F08050C86100BF2078F5
:100F500000F00200022807D10B48406820F440400E
:100F6000A168084308494860207800F01000102864
:100F700007D10548406820F48000E1680843024931
:100F800048600020A1E7000000100240007000400F
:100F90004004424270B504460D460CB9012070BDB4
:100FA0005A48006800F00700A8420ED2574800686F
:100FB00020F007002843554908600846006800F003
:100FC0000700A84201D00120E9E7207800F00200E4
:100FD00002281DD1207800F00400042805D14C48D7
:100FE000406840F4E0604A494860207800F008001A
:100FF000082805D14648406840F46050444948609C
:101000004348406820F0F000A16808434049486028
:10101000207800F0010078B36068012806D13C48D0
:10102000006800F4003090B90120B8E76068022839
:1010300006D13748006800F0007040B90120AEE7E3
:101040003348006800F0020008B90120A7E73048E3
:10105000406820F00300616808432D494860FFF7AD
:1010600051FC064609E0FFF74DFC801B41F2883138
:10107000884202D9032092E707E02548406800F043
:101080000C006168B0EB810FEDD12048006800F0E2
:101090000700A8420ED91D48006820F00700284329
:1010A0001A4908600846006800F00700A84201D00D
:1010B000012074E7207800F00400042807D11448C8
:1010C000406820F4E060E1680843114948602078F6
:1010D00000F00800082808D10D48406820F460504E
:1010E000216940EAC1000A49486000F03FF8084918
:1010F0004968C1F30311074A515CC84006490860BA
:1011000006480068FFF746FD002048E7002002403F
:10111000001002400E3000080C00002004000020E7
:1011200001480068704700000C00002000B5FFF780
:10113000F7FF04494968C1F30221034A515CC840E2
:1011400000BD0000001002401E30000800B5FFF78F
:10115000E7FF04494968C1F3C221034A515CC84012
:1011600000BD0000001002401E30000870B50021D4
:101170000022002400230020134D696801F00C05B3
:10118000F5B1042D02D0082D19D101E00F4819E066
:101190000F4DC1F38346AB5D01F4803555B10A4D67
:1011A0006D68C5F340450B4E725D084D5D43B5FB60
:1011B000F2F402E0084D03FB05F4204602E000BF14
:1011C000024800BF00BF70BD0010024000127A004C
:1011D000FC2F00080C30000800093D00F8B504465B
:1011E0000CB90120F8BD207800F00100002878D06B
:1011F000F848406800F00C0004280CD0F54840681E
:1012000000F00C00082811D1F248406800F480304A
:10121000B0F5803F0AD1EF48006800F400300028A4
:101220005FD0606800285CD10120DBE700BF606808
:10123000B0F5803F06D1E748006840F48030E549CA
:10124000086028E0606858B9E248006820F48030FF
:10125000E04908600846006820F4802008601AE031
:101260006068B0F5A02F0BD1DA48006840F4802008
:10127000D84908600846006840F4803008600AE0F9
:10128000D448006820F48030D249086008460068DD
:1012900020F48020086000BF606888B1FFF732FB4F
:1012A000054606E0FFF72EFB401B642801D903200A
:1012B00098E7C848006800F400300028F2D010E039
:1012C000FFF720FB054606E0FFF71CFB401B6428E8
:1012D00001D9032086E7BF48006800F400300028E9
:1012E000F2D1207800F00200022857D1B9484068B6
:1012F00000F00C0050B1B748406800F00C0008281E
:1013000018D1B448406800F4803098B9B1480068FA
:1013100000F0020020B12069012801D0012061E71E
:10132000AC48006820F0F800616940EAC100A949B2
:10133000086033E02069E8B10120A7490860FFF7A1
:10134000E1FA054606E0FFF7DDFA401B022801D965
:10135000032047E79F48006800F002000028F2D011
:101360009C48006820F0F800616940EAC100994992
:10137000086013E0002098490860FFF7C3FA0546AB
:1013800006E0FFF7BFFA401B022801D9032029E736
:101390009048006800F002000028F2D1207800F0A8
:1013A000080008282DD1A069B8B101208B49086038
:1013B000FFF7A8FA054606E0FFF7A4FA401B02284B
:1013C00001D903200EE78348406A00F0020000289C
:1013D000F2D0012001F032FA13E000207F490860CA
:1013E000FFF790FA054606E0FFF78CFA401B02284B
:1013F00001D90320F6E67748406A00F00200002891
:10140000F2D1207800F00400042873D1002771483D
:10141000C06900F0805070B900BF6E48C06940F0EC
:1014200080506C49C8610846C06900F08050009047
:1014300000BF00BF01276A48006800F48070B0B99F
:101440006748006840F4807065490860FFF75AFA01
:10145000054606E0FFF756FA401B642801D9032031
:10146000C0E65F48006800F480700028F2D000BF3A
:10147000E068012806D15748006A40F0010055494C
:10148000086227E0E06858B95248006A20F001007D
:10149000504908620846006A20F00400086219E01A
:1014A000E06805280BD14B48006A40F00400494928
:1014B00008620846006A40F0010008620AE04548F8
:1014C000006A20F00100434908620846006A20F0E3
:1014D0000400086200BFE068A0B1FFF713FA0546F8
:1014E00009E0FFF70FFA401B41F28831884202D928
:1014F000032077E622E03748006A00F00200002867
:10150000EFD012E0FFF7FEF9054608E0FFF7FAF921
:10151000401B41F28831884201D9032062E62D4800
:10152000006A00F002000028F0D1012F05D12948FF
:10153000C06920F080502749C86100BFE069C8B386
:101540002448406800F00C00082860D0E0690228B8
:1015500048D1002020490866FFF7D4F9054606E087
:10156000FFF7D0F9401B022801D903203AE61948B9
:10157000006800F000700028F2D1206AB0F5803FCA
:1015800007D11448406820F40030A168084311498D
:101590004860D4E9080108430E49496821F47411F0
:1015A00008430C49486001200B490866FFF7AAF977
:1015B000054607E03DE0FFF7A5F9401B022801D9E9
:1015C00003200FE60348006800F000700028F2D006
:1015D0002FE000000010024000004242800442421E
:1015E00000700040002014490866FFF78BF905469B
:1015F00006E0FFF787F9401B022801D90320F1E537
:101600000E48006800F000700028F2D111E0E06997
:10161000012800D1E6E50948466806F48031206AD1
:10162000814204D106F47011606A814201D0012028
:10163000D8E50020D6E5000000004242001002403C
:1016400010B504460CB9012010BD606A38B9606855
:10165000B0F5827F00D105E00021E16102E00021C8
:10166000216161610021A16294F8510028B9002034
:1016700084F85000204600F043F8022084F851001E
:101680002068006820F0400021680860A08800F40D
:101690008270218901F404410843A18901F40061A9
:1016A0000843217C01F002010843217D01F0010182
:1016B0000843218B01F400710843217F01F03801B8
:1016C00008432021095D01F080010843218D01F4C8
:1016D00000510843216808600421A06901EA104014
:1016E000216848602068C06920F400602168C861F2
:1016F00000206065012084F851000020A4E700006C
:1017000010B586B004460020029003900490059026
:101710001A49206888422FD100BF1948C06940F497
:1017200080401749C8610846C06900F480400190B4
:1017300000BF00BF00BF0846806940F00800886114
:101740000846806900F00800019000BF00BF4FF418
:1017500020400290022003900320059002A909482E
:10176000FEF73AFF4FF4804002900020039004906F
:1017700002A90448FEF730FF06B010BD0038004053
:1017800000100240000C014070B504462546681E5A
:10179000B0F1807F01D301200FE0681E4FF0E021FF
:1017A00048610F214FF0FF3001F0F6FB00204FF0B1
:1017B000E021886107200861002070BD70477047F4
:1017C00030B502460B4600BF92F83C00012801D11B
:1017D000022030BD012082F83C0000BF022082F8C8
:1017E0003D00106844681068816824F0700418682F
:1017F000044310684460104D1068A8420BD0106874
:10180000B0F1804F07D00D4D1068A84203D00C4DA9
:101810001068A84205D121F0800158680143106882
:101820008160012082F83D0000BF002082F83C006A
:1018300000BF00BFCDE70000002C014000040040C5
:101840000008004070472DE9F04104460D46164659
:10185000002700BF94F83C00012802D10220BDE817
:10186000F081012084F83C0000BF96B9EB68D5E90F
:101870000012206801F046F92068806920F00C0011
:101880002168886120688069A968084321688861A7
:1018900041E0042E13D1EB68D5E90012206801F075
:1018A00065F92068806920F44060216888612068BB
:1018B0008069A96840EA0120216888612BE0082E30
:1018C00012D1EB68D5E90012206801F06CF92068AC
:1018D000C06920F00C002168C8612068C069A9684F
:1018E00008432168C86116E00C2E13D1EB68D5E9D6
:1018F0000012206801F073F92068C06920F440608C
:101900002168C8612068C069A96840EA012021688F
:10191000C86100E0012700BF002084F83C0000BF40
:1019200038469CE710B504460CB9012010BD94F868
:101930003D0028B9002084F83C00204600F026F83D
:10194000022084F83D00211D206800F0DDFF012009
:1019500084F8460000BF84F83E0001213F20015575
:10196000402001554120015500BF00BF012084F8EF
:10197000420043200155442001554520015500BF38
:10198000012084F83D000020D0E7000010B586B0AB
:101990000446002002900390049005902068B0F166
:1019A000804F2BD100BF1648C06940F00100144998
:1019B000C8610846C06900F00100019000BF00BF87
:1019C00000BF0846806940F00400886108468069CD
:1019D00000F00400019000BF00BF01200290002031
:1019E0000390049002A90748FEF7F6FD0022114675
:1019F0001C20FFF72FF91C20FFF71CF906B010BDC3
:101A0000001002400008014070B504462068C56817
:101A10002068066906F00200022819D105F00200CC
:101A2000022815D1401F2168086101202077206815
:101A3000806900F0030018B12046FFF703FF05E0BE
:101A4000204600F0F9F8204600F0D8F90020207771
:101A500006F00400042819D105F00400042815D16B
:101A6000C04321680861022020772068806900F463
:101A7000407018B12046FFF7E5FE05E0204600F073
:101A8000DBF8204600F0BAF90020207706F00800C5
:101A9000082819D105F00800082815D1C04321688D
:101AA0000861042020772068C06900F0030018B1A5
:101AB0002046FFF7C7FE05E0204600F0BDF82046AF
:101AC00000F09CF90020207706F01000102819D1B2
:101AD00005F01000102815D1C043216808610820C6
:101AE00020772068C06900F4407018B12046FFF7E5
:101AF000A9FE05E0204600F09FF8204600F07EF9A0
:101B00000020207706F0010048B105F0010030B157
:101B10006FF0010021680861204600F070F906F0BE
:101B20008000802809D105F08000802805D1C043BD
:101B3000216808612046FFF741FE06F0400040287A
:101B400009D105F04000402805D1C0432168086153
:101B5000204600F055F906F02000202809D105F0B4
:101B60002000202805D1C043216808612046FFF7E6
:101B700026FE70BD10B586B004460020029003908A
:101B8000049005902749206888422DD100BF26483F
:101B9000806940F00400244988610846806900F0AB
:101BA0000400019000BF00BF00BF0846806940F0FC
:101BB000080088610846806900F00800019000BFB5
:101BC00000BFC020029002200390059002A9174890
:101BD000FEF702FD0320029002200390059002A967
:101BE0001348FEF7F9FC1BE012492068884217D120
:101BF00000BF0D48806940F008000B498861084625
:101C0000806900F00800019000BF00BF4FF44070F1
:101C1000029002200390059002A90548FEF7DCFC23
:101C200006B010BD00040040001002400008014052
:101C3000000C01400008004070472DE9F0410446C7
:101C40000D461646002700BF94F83C00012802D13B
:101C50000220BDE8F081012084F83C0000BF36B1CD
:101C6000042E1BD0082E31D00C2E5ED145E0294623
:101C7000206800F08BFE2068806940F00800216831
:101C800088612068806920F00400216888612068EC
:101C90008069296908432168886148E029462068ED
:101CA00000F0A4FE2068806940F40060216888612B
:101CB0002068806920F480602168886120688069DC
:101CC000296940EA01202168886130E029462068BE
:101CD00000F0C0FE2068C06940F008002168C861BB
:101CE0002068C06920F004002168C8612068C069CC
:101CF000296908432168C86119E02946206800F075
:101D0000DDFE2068C06940F400602168C861206879
:101D1000C06920F480602168C8612068C0692969B1
:101D200040EA01202168C86101E0012700BF00BF2F
:101D300000BF002084F83C0000BF384689E710B59A
:101D400004460CB9012010BD94F83D0028B90020CC
:101D500084F83C00204600F025F8022084F83D007D
:101D6000211D206800F0D0FD012084F8460000BF4E
:101D700084F83E0001213F200155402001554120BB
:101D8000015500BF00BF012084F8420043200155E7
:101D9000442001554520015500BF012084F83D0035
:101DA0000020D0E708B5124A016891420DD100BF6A
:101DB0001049C96941F002010E4AD1611146C96951
:101DC00001F00201009100BF11E00B4A016891424D
:101DD0000DD100BF0749C96941F00401054AD1612D
:101DE0001146C96901F00401009100BF00BF08BDA0
:101DF0000004004000100240000800407047704797
:101E000070477047704700002DE9F84F044620687E
:101E100005682068C668206847694FF00009CA460F
:101E200005F00F09B9F1000F0AD105F0200038B113
:101E300006F0200020B1204600F03FFFBDE8F88FFB
:101E4000B9F1000F7BD007F0010018B906F49070CB
:101E5000002874D005F0010030B106F4807018B18C
:101E6000606C40F00100606405F0040030B107F0E0
:101E7000010018B1606C40F00200606405F00200DF
:101E800030B107F0010018B1606C40F004006064EC
:101E900005F0080048B106F0200010B907F0010075
:101EA00018B1606C40F008006064606C002845D098
:101EB00005F0200028B106F0200010B1204600F007
:101EC000FCFE20684069C0F3801A606C00F00800D6
:101ED00010B9BAF1000F2CD0204600F0A8FE2068FF
:101EE000406900F0400000B300BF00BF216814311A
:101EF00051E8001F21F040002168143141E8000240
:101F0000002AF3D100BFE06B50B17748E16B486322
:101F1000E06BFEF707FA88B1E06B416B88470DE094
:101F20002046FFF76FFF09E009E02046FFF76AFF50
:101F300004E02046FFF766FF002060647EE7206B28
:101F4000012877D105F01000002873D006F01000AA
:101F50000028FAD000BF00200090206800680090A0
:101F600020684068009000BF00BF2068406900F012
:101F7000400000285FD0E06B006840681FFA80F8DE
:101F8000B8F1000F55D0A08D404552DDA4F82E8049
:101F9000E06B8069202843D000BF00BF21680C316E
:101FA00051E8001F21F4807021680C3141E80002E3
:101FB000002AF3D100BF00BF00BF2168143151E8EF
:101FC000001F21F001002168143141E80002002ABD
:101FD000F3D100BF00BF00BF2168143151E8001FDA
:101FE00021F040002168143141E80002002AF3D1B9
:101FF00000BF202084F842000020206300BF00BF03
:1020000021680C3151E8001F21F0100021680C31CB
:1020100041E80002002AF3D100BFE06BFEF756F959
:1020200002206063A08DE28D801A81B22046FFF706
:10203000E8FE03E742E0A08DE18D401A1FFA80F828
:10204000E08DD0B3B8F1000F37D000BF00BF2168DA
:102050000C3151E8001F21F4907021680C3141E8E7
:102060000002002AF3D100BF00BF00BF2168143175
:1020700051E8001F21F001002168143141E80002FD
:10208000002AF3D100BF202084F842000020206302
:1020900000BF00BF21680C3151E8001F21F0100083
:1020A00021680C3141E80002002AF3D100BF022070
:1020B000606341462046FFF7A4FEBFE605F08000BE
:1020C00030B106F0800018B1204600F0F3FEB5E60E
:1020D00005F0400030B106F0400018B1204600F095
:1020E000DCFDABE600BFA9E61B2C000810B50446DA
:1020F0000CB9012010BDA06900B100E000BF94F848
:10210000410028B9002084F84000204600F02AF859
:10211000242084F841002068C06820F40050216821
:10212000C860204600F048FE2068006920F4904016
:10213000216808612068406920F02A002168486110
:102140002068C06840F400502168C86000206064C6
:10215000202084F8410084F842000020606300BF22
:10216000C8E7000010B586B0044600200290039036
:102170000490059083492068884252D100BF82486C
:10218000806940F48040804988610846806900F495
:102190008040019000BF00BF00BF0846806940F04A
:1021A000040088610846806900F00400019000BFC7
:1021B00000BF48150290022003900320059002A959
:1021C0007248FEF709FA4FF48060029000200390F5
:1021D000049002A96D48FEF7FFF96D486D4908604B
:1021E0000020486000216B4881608021C16000218F
:1021F00001614161202181610021C161FEF7B8F9CF
:1022000008B1FEF760F800BF6248E063446200BFB7
:10221000002211462520FEF71DFD2520FEF70AFDB0
:10222000ADE05D492068884252D100BF5648C06980
:1022300040F400305449C8610846C06900F40030D9
:10224000019000BF00BF00BF0846806940F0040055
:1022500088610846806900F00400019000BF00BF5B
:1022600004200290022003900320059002A9474811
:10227000FEF7B2F90820029000200390049002A912
:102280004248FEF7A9F9424814304449086000204A
:1022900048600021414881608021C16000210161C6
:1022A0004161202181610021C161FEF761F908B11E
:1022B000FEF709F800BF3948E063446200BF00221E
:1022C00011462620FEF7C6FC2620FEF7B3FC56E09A
:1022D00033492068884252D100BF2B48C06940F47E
:1022E00080202949C8610846C06900F48020019017
:1022F00000BF00BF00BF0846806940F00800886149
:102300000846806900F00800019000BF00BF081572
:102310000290022003900320059002A92148FEF7B5
:102320005BF94FF40060029000200390049002A932
:102330001C48FEF751F9164828381B490860002050
:1023400048600021184881608021C160002101613E
:102350004161202181610021C161FEF709F908B1C5
:10236000FDF7B1FF00BF1048E063446200BF0022E8
:1023700011462720FEF76EFC2720FEF75BFC06B017
:1023800010BD00000038014000100240000801406C
:10239000580002406C02002000440040B0020020BF
:1023A00000480040000C0140F402002070477047D4
:1023B00000BFFEE708B500BF1248406940F00100C9
:1023C000104948610846406900F00100009000BFD4
:1023D00000BF002211460D20FEF73CFC0D20FEF749
:1023E00029FC002211460F20FEF734FC0F20FEF7D7
:1023F00021FC002211461020FEF72CFC1020FEF7D5
:1024000019FC08BD0010024000B585B00020019005
:1024100002900390049000BF3848806940F020008B
:10242000364988610846806900F02000009000BFAE
:1024300000BF00BF0846806940F00400886108467C
:10244000806900F00400009000BF00BF00BF084694
:10245000806940F0080088610846806900F0080043
:10246000009000BF00BF00224FF481712448FEF7A6
:1024700043FA00224FF480512248FEF73DFA012230
:10248000D1031F48FEF738FA012238211D48FEF714
:1024900033FA4FF4817001900120029000200390E4
:1024A0000220049001A91648FEF796F84FF48050D8
:1024B000019001200290002003900220049001A9C5
:1024C0001048FEF789F84FF4004001900120029077
:1024D000002003900120049001A90948FEF77CF830
:1024E00038200190012002900020039001200490E8
:1024F00001A90448FEF770F805B000BD00100240C5
:1025000000080140000C014010B50B480B49086061
:102510000B484860002109488160C1604FF4804148
:102520000161002141618161C1610162FEF7F0F941
:1025300008B1FDF7C8FE10BD005400401000002097
:10254000A086010010B50E480E4908604FF4827055
:10255000486000210B488160C160016141614FF416
:10256000007181611021C1610021016241628162BB
:102570000A21C162FFF764F808B1FDF7A4FE10BD9F
:10258000003800406400002000B587B000200590AE
:10259000069001900290039004904FF080401649FD
:1025A0000860472048600021134881604FF6FF71A2
:1025B000C160002101618161FFF7B4F908B1FDF745
:1025C00082FE00200590069005A90B48FFF7F8F859
:1025D00008B1FDF778FE0020019001200290002054
:1025E00003900490002201A90348FFF72CF908B1D9
:1025F000FDF769FE07B000BDBC00002000B589B042
:102600000020079008901C216846FDF7DDFD244856
:1026100024490860472048600021224881604FF625
:10262000FF71C160002101618161FFF788FB08B182
:10263000FDF749FE00200790089007A91948FFF709
:10264000BFF808B1FDF73FFE602000900020019028
:1026500002900490002269461248FFF7EEFA08B192
:10266000FDF731FE042269460E48FFF7E6FA08B18D
:10267000FDF729FE082269460A48FFF7DEFA08B18D
:10268000FDF721FE0C2269460648FFF7D6FA08B18D
:10269000FDF719FE0348FFF76DFA09B000BD000011
:1026A000000400400401002000B589B0002007901C
:1026B00008901C216846FDF787FD1C481C490860EE
:1026C0004720486000211A48816040F2E731C1602C
:1026D000002101618161FFF732FB08B1FDF7F3FDD5
:1026E00000200790089007A91148FFF769F808B182
:1026F000FDF7E9FD60200090002001900290049019
:10270000082269460A48FFF798FA08B1FDF7DBFD91
:102710000C2269460648FFF790FA08B1FDF7D3FD91
:102720000348FFF727FA09B000BD00000008004089
:102730004C01002010B50B480B4908604FF4E13004
:102740004860002108488160C16001610C2141613D
:1027500000218161C161FFF7C9FC08B1FDF7B3FD3C
:1027600010BD0000003801409401002010B50B4856
:102770000B4908604FF4E13048600021084881604F
:10278000C16001610C21416100218161C161FFF7DC
:10279000ADFC08B1FDF797FD10BD000000440040FE
:1027A000DC01002010B50B480B4908604FF4E13004
:1027B0004860002108488160C16001610C214161CD
:1027C00000218161C161FFF791FC08B1FDF77BFD3C
:1027D00010BD0000004800402402002010B5094848
:1027E0000949086008200871022107488171002109
:1027F0008172C1720173FEF77FFA08B1FDF763FDC4
:1028000010BD0000005C00403803002000BFFEE760
:1028100000BFFEE710B5012211030548FEF76CF872
:1028200000224FF480710348FEF766F810BD0000E7
:10283000000C0140000801407047000008B508493D
:102840000968C9084FF47A72B1FBF2F14143009173
:1028500000BF00BF00994A1E00920029F9D108BDAF
:102860000C000020704710B5FEF774F910BD00B5DC
:1028700093B0282109A8FDF7A7FC142104A8FDF7AF
:10288000A3FC002000900190029003900120099089
:1028900000040A9000200B9001200D90022010905F
:1028A000C10311914FF4E011129109A8FEF796FCB3
:1028B00008B1FDF708FD0F200490022005900020CC
:1028C00006904FF4806007904FF4C060089002219A
:1028D00004A8FEF75FFB08B1FDF7F5FC102000909F
:1028E000002003906846FEF7BDFA08B1FDF7EBFC47
:1028F00013B000BD7047000010B50248FFF784F820
:1029000010BD0000BC00002010B502681C4B9842AE
:1029100008D0B0F1804F05D01A4B984202D01A4B24
:10292000984203D122F070024B681A43144B98422C
:1029300008D0B0F1804F05D0124B984202D0124B14
:10294000984203D122F44072CB681A4322F08003EC
:102950004C6943EA040202608B68C3620B688362BD
:10296000074B984201D10B6903630123436103695B
:1029700003F001031BB1036923F00103036110BDE0
:10298000002C0140000400400008004030B5026AFD
:10299000056A25F0010505624368846924F0700426
:1029A00024F003040D682C4322F002028D682A43B0
:1029B0000D4DA84206D100BF22F00802CD682A437F
:1029C00022F00402084DA84207D123F4807323F4B7
:1029D00000734D692B438D692B43436084614D68BF
:1029E0004563026230BD0000002C014030B5026A30
:1029F000056A25F0100505624368846924F4E04403
:102A000024F440740D6844EA052422F020028D6805
:102A100042EA05120E4DA84207D100BF22F0800203
:102A2000CD6842EA051222F04002094DA84209D1C0
:102A300023F4806323F400634D6943EA85038D69C1
:102A400043EA8503436084614D688563026230BD5B
:102A5000002C014030B5026A056A25F480750562D4
:102A60004368C46924F0700424F003040D682C4307
:102A700022F400728D6842EA05220F4DA84207D168
:102A800000BF22F40062CD6842EA052222F480628F
:102A9000094DA84209D123F4805323F400534D6912
:102AA00043EA05138D6943EA05134360C4614D6829
:102AB000C563026230BD0000002C014030B5036ADE
:102AC000056A25F4805505624468C26922F4E04233
:102AD00022F440720D6842EA052223F400538D6807
:102AE00043EA0533064DA84204D124F480444D69DD
:102AF00044EA85144460C2614D680564036230BDD8
:102B0000002C014070B50C461546026A066A26F094
:102B1000010606628169124EB04208D0B0F1804FC2
:102B200005D0104EB04202D00F4EB04201D1012666
:102B300000E000261EB121F00301294301E041F02D
:102B4000010121F0F001F02606EA0316314322F0DC
:102B50000A0204F00A0632438161026270BD00007D
:102B6000002C0140000400400008004070B50C46F5
:102B70001546026A066A26F010060662816921F48B
:102B8000407141EA052121F470414FF4704606EA94
:102B90000336314322F0A002A02606EA041632438F
:102BA0008161026270BD70B50C461546026A066A04
:102BB00026F480760662C16921F00301294321F0E1
:102BC000F001F02606EA0316314322F400724FF4B6
:102BD000007606EA04263243C161026270BD70B518
:102BE0000C461546026A066A26F480560662C169DA
:102BF00021F4407141EA052121F470414FF47046FF
:102C000006EA0336314322F400524FF4005606EA36
:102C100004363243C161026270BD70B505466C6A0C
:102C20000020E085E0842046FFF7ECF870BD00BF8F
:102C300000BF02680C3252E8002F22F49071026843
:102C40000C3242E80013002BF3D100BF00BF00BFDD
:102C50000268143252E8002F22F001010268143297
:102C600042E80013002BF3D100BF016B01290ED104
:102C700000BF00BF02680C3252E8002F22F01001A2
:102C800002680C3242E80013002BF3D100BF202170
:102C900080F8421000210163704710B50446206897
:102CA000C06820F040002168C860202084F84100FE
:102CB0002046FFF77CFB002010BDF8B5044694F8D1
:102CC0004200222875D1A068B0F5805F0CD1206940
:102CD00050B90025A66A20684068C0F3080030801B
:102CE000A06A801CA06215E0A56A0026A068B0F565
:102CF000805F03D0A06828B9206918B920684068AF
:102D0000287004E02068406800F07F002870A06A06
:102D1000401CA062E08D401E80B2E085002846D1B4
:102D20002068C06820F020002168C8602068C06862
:102D300020F480702168C8602068406920F001009C
:102D400021684861202084F8420000206063206BE5
:102D5000012826D10020206300BF00BF21680C316C
:102D600051E8001F21F0100021680C3141E80002F9
:102D7000002AF3D100BF2068006800F0100010287E
:102D80000AD100BF002000902068006800902068F1
:102D90004068009000BF00BFA18D2046FFF731F8CA
:102DA00002E02046FFF702FB0020F8BD01E0002012
:102DB000FBE70220F9E7000070B5044621680969C5
:102DC00021F44051E2681143226811612269A1682F
:102DD0001143626941EA02052168C96841F20C6247
:102DE000914329432268D1602168496921F44071E7
:102DF000A2691143226851612D4A2168914202D192
:102E0000FEF7A4F901E0FEF791F900EBC00101EB38
:102E1000001162689200B1FBF2F100EBC00202EB1C
:102E2000001263689B00B2FBF3F26423B2FBF3F27F
:102E300002EBC20303EB0212A1EB8201322202EB8E
:102E400001116422B1FBF2F101F0F00100EBC002CC
:102E500002EB001263689B00B2FBF3F26423B2FB47
:102E6000F3F201EB021200EBC00101EB0011636809
:102E70009B00B1FBF3F100EBC00303EB00136668AA
:102E8000B600B3FBF6F36426B3FBF6F303EBC3061D
:102E900006EB0313A1EB8301322303EB011164233F
:102EA000B1FBF3F101F00F0111442268916070BD94
:102EB00000380140014691F84100212828D1886856
:102EC000B0F5805F0BD1086948B90A6A1088C0F371
:102ED00008000B685860086A801C086205E00B6AED
:102EE000581C086218780B685860C88C401E80B265
:102EF000C88458B90868C06820F080000B68D860A2
:102F00000868C06840F040000B68D8600020704737
:102F10000220FCE710B50248FEF776FF10BD000066
:102F20009401002010B50248FEF76EFF10BD0000AE
:102F3000DC01002010B50248FEF766FF10BD00005E
:102F40002402002010B50446002010BD01460020D8
:102F5000704710B50446012024F8400F002020805F
:102F6000A0802082403C10BD01464FF43F42B1F8A2
:102F700040009043A1F84000002070470246002026
:102F8000704700BFFEE7000002480068C0F302205F
:102F9000704700000CED00E010B5002804DB0A07C4
:102FA000130E054A135406E00A07140E034A00F0F4
:102FB0000F031B1FD45410BD00E400E018ED00E027
:102FC000FDF7D4FDFFF753FCFFF71EFAFFF7F2F908
:102FD000FFF7DAFAFFF7AEFBFFF7C8FBFFF7E2FBFC
:102FE000FFF792FAFFF7AEFAFFF75EFBFFF706FB7B
:102FF000FFF7F4FBFFF70EFC00BFFEE7020304053A
:10300000060708090A0B0C0D0E0F10100102000034
:103010000000000000000102030406070809000088
:1030200000000102030400004830000800000020F6
:10303000100000002801000858300008100000208F
:10304000600C0000440100080000000010000000B7
:083050000100000000127A00EB
:04000005080000ED02
:00000001FF
