:020000040800F2
:100000002808002001010008C12800089D240008DC
:10001000B92700087306000821330008000000001B
:10002000000000000000000000000000F1280008AF
:100030002907000800000000C5280008F328000870
:100040001B0100081B0100081B0100081B01000820
:100050001B0100081B0100081B0100081B01000810
:100060001B0100081B0100081B0100081B01000800
:100070001B0100081B0100081B0100081B010008F0
:10008000DD060008ED0600081B0100081B01000842
:100090001B0100081B0100081B0100081B010008D0
:1000A0001B0100081B0100081B0100081B010008C0
:1000B000652900081B0100081B0100081B0100083E
:1000C0001B0100081B0100081B0100081B010008A0
:1000D0001B01000871320008813200081B01000872
:1000E0001B0100081B0100081B010008DFF80CD0F1
:1000F00000F03CFA00480047B93400082808002006
:100100000648804706480047FEE7FEE7FEE7FEE7B1
:10011000FEE7FEE7FEE7FEE7FEE7FEE763290008ED
:10012000ED000008202A04DB203A21FA02F0002129
:10013000704721FA02F3D040C2F1200291400843F7
:100140001946704740EA01039B0703D009E008C93C
:10015000121F08C0042AFAD203E011F8013B00F88C
:10016000013B521EF9D27047D2B201E000F8012BD8
:10017000491EFBD270470022F6E710B513460A4627
:1001800004461946FFF7F0FF204610BD30B504467F
:100190000020034600E05B1C934203D2E05CCD5C90
:1001A000401BF8D030BD70B5064603F0DFF8046898
:1001B00005460A220021304600F00CF92C6070BD83
:1001C0002DE9FE4F81EA030404F0004421F00041D0
:1001D00000944FF0000B23F0004350EA01045ED07E
:1001E00052EA03045BD0C3F30A54C1F30A552C440A
:1001F000A4F2F3340194A0FB0254C1F3130141F4BF
:100200008011C3F3130343F4801301FB024400FB8A
:10021000034E840A970A44EA815447EA8357A4FBB1
:10022000076802958D0A05FB07854FEA932C04FBAE
:100230000C542705029D4FEA065847EA1637B5EBDE
:1002400008056EEB070C870E920E47EA811742EA0B
:100250008312A7FB0201B6EB0B0164EB00042B0D2C
:1002600043EA0C335E1844EB1C50DA465146E7FB78
:100270000201C5F313044FEA0B3343EA14534FEA68
:100280000432019C43EA0603A4F10C040294009C8E
:10029000CDE900B400F01CF903B0BDE8F08F0020F8
:1002A0000146F9E72DE9F04D81EA030404F0004B23
:1002B00021F0004514464FF0000A23F0004150EAB7
:1002C000050220D054EA01021DD0C5F30A570246A8
:1002D000C5F31303C1F31300C1F30A5640F48015AC
:1002E00043F48013A7EB0608101BD64608F2FD382E
:1002F00073EB050002D308F1010801E092185B419D
:10030000B8F1000F03DA00200146BDE8F08D0020AF
:100310004FF48011064684460EE0171B73EB050769
:1003200005D3121B63EB050306434CEA010C490895
:100330004FEA300092185B4150EA0107EDD152EAD2
:10034000030012D082EA040083EA0501084305D0C5
:10035000101BAB4106D20122002306E000224FF021
:10036000004302E06FF0010253101AEB06004CEB61
:10037000085110EB0A0041EB0B01BDE8F04D00F015
:1003800098B80EB540F2334102910021CDE9001139
:100390000A460B4600F09CF803B000BD01F0004394
:1003A00030B421F0004150EA010206D00A0DA2F556
:1003B0006072C1F31301002A02DC30BC00207047D8
:1003C000440F44EAC104C100E01830BC00EBC25045
:1003D00000F038B82DE9F04791460F4680460446B4
:1003E000002614F8015B2DB100F0E2F80068405DD2
:1003F000C007F6D12B2D02D02D2D18D0641E4A46F1
:100400003946204600F0D8F827B13968A14201D119
:10041000C7F8008071054FF002040BD54042002858
:1004200003DD02F0A3FF0460A007BDE8F08746F4F7
:100430008066E4E70028F8DA02F098FF04606FF0C5
:100440000040F2E70029A8BF7047401C490008BFE0
:1004500020F00100704710B4B0FA80FC00FA0CF0F4
:1004600050EA010404BF10BC704749B1CCF120042C
:1004700021FA04F411FA0CF118BF012121430843B9
:10048000A3EB0C01CB1D4FEA00614FEA102042BFE5
:10049000002010BC704700EBC35010440029A4BFDB
:1004A00010BC7047401C490008BF20F0010010BC80
:1004B000704710B5141E73F1000408DA401C41F1B6
:1004C000000192185B411A4301D120F0010010BDD8
:1004D0002DE9F04D92469B4611B1B1FA81F202E04E
:1004E000B0FA80F22032904600F052F804460F46EF
:1004F00040EA0A0041EA0B0153465A46084313D02A
:10050000114653EA010019D0C8F140025046FFF7E6
:1005100009FE05460E4650465946424600F038F858
:10052000084305D0012004E020463946BDE8F08D9F
:100530000020054346EAE0762C4337430A986305DA
:10054000E40AA0EB08000022FD0A44EA47540A30FE
:1005500002D500200146E9E7010510196941DDE9EE
:10056000084500196941BDE8F04DA2E7064C074D6A
:1005700006E0E06840F0010394E807009847103473
:10058000AC42F6D3FFF7B6FDAC370008CC37000815
:10059000202A04DB203A00FA02F100207047914043
:1005A000C2F1200320FA03F3194390407047000082
:1005B00000487047A83700082DE9F05F82460078B0
:1005C000002715468B460AF10104B946302801D0B0
:1005D0009DB113E014F8010B0127782803D05828A7
:1005E00001D045B10AE00DB1102D07D1002710252B
:1005F00014F8010B02E0082500E00A250026B046A9
:100600000EE005FB080005FB06F1012701EB104693
:100610001FFA80F8B6F5803F00D3B94614F8010BF5
:10062000294600F018F80028EBDABBF1000F05D0DE
:100630000FB1641E00E05446CBF80040B9F1000F42
:1006400006D002F093FE02210160C81EBDE8F09FB3
:1006500048EA0640FAE73A2800D2303820F0200273
:10066000412A01D3A2F13700884201D34FF0FF3075
:10067000704700BFFEE710B50446204602F09EF822
:10068000204602F0D7F810BD10B50446204602F00F
:10069000A9F8204602F0E4F810BD10B502F0B6F853
:1006A00002F0F6F810BD70B50446254604EBD5718E
:1006B000C1F34F0002F096F8204602F0D1F870BD69
:1006C00070B50446204602F08DF8254604EBD5713E
:1006D000C1F34F0002F0C4F870BD000010B502482D
:1006E00000F0AAF810BD0000C802002010B50248B2
:1006F00000F0A2F810BD00000C03002030B590F807
:1007000040500124AC40C56B6C6004686360446871
:10071000102C04D10468A2600468E16003E004685E
:10072000A1600468E26030BD704772B600BFFEE7AA
:100730000146002291F82100022808D00420886395
:1007400000BF002081F8200000BF0120704708682A
:10075000006820F00E000B6818600868006820F040
:1007600001000B68186091F8403001209840CB6B75
:100770005860012081F8210000BF002081F820008E
:1007800000BF1046E2E7000070B50446002594F86B
:100790002100022803D00420A063012548E020683E
:1007A000006820F00E00216808602068006820F0D2
:1007B0000100216808601F492068884201D101209A
:1007C00026E01C4914312068884201D110201FE026
:1007D000184928312068884201D1801518E0154950
:1007E0003C312068884201D1801411E01149503118
:1007F0002068884202D14FF4803009E00D4964310D
:100800002068884202D14FF4801001E04FF08070E0
:10081000084908394860012084F8210000BF002001
:1008200084F8200000BF606B10B12046616B8847E0
:10083000284670BD0800024070B50446E06B0568AC
:100840002068066894F8401004208840284000285A
:1008500046D006F00400002842D02068006800F06E
:10086000200028B92068006820F004002168086092
:1008700057492068884201D1042027E054491431A7
:100880002068884201D1402020E051492831206869
:10089000884201D1001519E04D493C312068884259
:1008A00002D14FF4804011E049495031206888421C
:1008B00002D14FF4802009E0454964312068884224
:1008C00002D14FF4800001E04FF0806040490839C8
:1008D0004860E06A00287AD02046E16A884776E0DE
:1008E00094F84010022088402840A0B306F002008F
:1008F00088B32068006800F0200040B920680068D4
:1009000020F00A0021680860012084F821003049A5
:100910002068884201D1022028E02D491431206846
:10092000884201D1202021E02949283120688842CD
:1009300001D140151AE026493C312068884202D195
:100940004FF4005012E0224950312068884203D110
:100950004FF400300AE017E01D49643120688842F6
:1009600002D14FF4001001E04FF00070184908392F
:10097000486000BF002084F8200000BFA06A30B3A8
:100980002046A16A884722E094F840100820884059
:100990002840E0B106F00800C8B12068006820F0E7
:1009A0000E002168086094F8401001208840E16B37
:1009B00048600120A06384F8210000BF002084F873
:1009C000200000BF206B10B12046216B884770BD0E
:1009D000080002400146002209B901207047164B69
:1009E0000868C01A1423B0FBF3F0800008641248B2
:1009F0000838C863022081F821000868026843F6BD
:100A0000F0708243D1E901031843CB6818430B69A6
:100A100018434B6918438B691843CB691843024349
:100A20000868026000208863012081F8210000200E
:100A300081F8200000BFD1E7080002402DE9F04115
:100A400004460D4616461F464FF0000800BF94F8B6
:100A50002000012802D10220BDE8F081012084F8A5
:100A6000200000BF94F8210001282CD1022084F836
:100A700021000020A0632068006820F001002168A8
:100A800008603B46324629462046FFF737FEE06ABB
:100A900030B12068006840F00E00216808600BE06B
:100AA0002068006820F00400216808602068006861
:100AB00040F00A00216808602068006840F00100EA
:100AC0002168086006E000BF002084F8200000BF15
:100AD0004FF002084046BFE72DE9F84703460022E1
:100AE00094466EE14FF0010808FA02F4D1F8008054
:100AF00008EA0400A0427DD1DFF8DCA2D1F804802E
:100B0000A8EB0A09D0453AD014DCB8F1030F50D055
:100B100009DCB8F1000F31D0B8F1010F1CD0B8F1E9
:100B2000020F49D120E0B8F1110F18D0B8F1120F1F
:100B300042D11EE0B9F5881F25D006DCB9F5803F0B
:100B400020D0B9F5801F37D11AE0B9F5001F18D0B1
:100B5000B9F5041F30D117E0D1F80CC02DE0D1F861
:100B60000C8008F1040C28E0D1F80C8008F1080C86
:100B700023E0D1F80C8008F10C0C1EE000BF00BF90
:100B800000BF00BF00BF00BFD1F80880B8F1000F60
:100B900002D14FF0040C0BE0D1F80880B8F1010F3E
:100BA00003D14FF0080C1C6102E04FF0080C5C61AF
:100BB00003E04FF0000C00E000BF00BFFF2801D8A9
:100BC000984601E003F104084646FF2802D84FEAA0
:100BD000820803E0A2F108084FEA88084746D6F8E1
:100BE00000804FF00F0909FA07F928EA09080CFA02
:100BF00007F900E088E048EA0908C6F80080D1F863
:100C0000048008F08058B8F1805F7DD100BFDFF824
:100C1000CC81D8F8188048F00108DFF8C091C9F8F5
:100C20001880C846D8F8188008F00108CDF8008070
:100C300000BF00BF4FEAB9384FEA920958F829506F
:100C40004FEA82784FEA18794FF00F0808FA09F84E
:100C500025EA0805DFF88881434502D14FF00008F6
:100C600016E0DFF88081434502D14FF001080FE024
:100C7000DFF87481434502D14FF0020808E0DFF845
:100C80006C81434502D14FF0030801E04FF00408A6
:100C90004FEA82794FEA197908FA09F848EA050516
:100CA000DFF84C814FEA920948F82950D1F80480C6
:100CB00008F48018B8F5801F0AD1DFF83881D8F819
:100CC000008048EA0008DFF82C91C9F8008009E0AC
:100CD000DFF82081D8F8008028EA0008DFF81491B6
:100CE000C9F80080D1F8048008F40018B8F5001F96
:100CF00010D1DFF8008108F10408D8F8008048EA34
:100D00000008DFF8F09000E05AE009F10409C9F8A2
:100D100000800DE0DFF8DC8008F10408D8F80080DE
:100D200028EA0008DFF8CC9009F10409C9F800802E
:100D3000D1F8048008F40038B8F5003F0ED1DFF890
:100D4000B480A8F10408D8F8008048EA0008DFF869
:100D5000A490A9F10409C9F800800DE0DFF894809F
:100D6000A8F10408D8F8008028EA0008DFF8849089
:100D7000A9F10409C9F80080D1F8048008F480388A
:100D8000B8F5803F0ED1DFF86C80A8F10808D8F8DC
:100D9000008048EA0008DFF85C90A9F10809C9F86A
:100DA00000800DE0DFF84C80A8F10808D8F800803A
:100DB00028EA0008DFF83C90A9F10809C9F800808A
:100DC000521CD1F8008028FA02F8B8F1000F7FF425
:100DD00089AEBDE8F8870000000011100010024045
:100DE00000080140000C01400010014000140140C7
:100DF00008000140080401400AB1016101E00B0450
:100E0000036170470148006870470000040000203B
:100E1000034800680349097808440149086070479D
:100E2000040000200C00002010B50848006840F0C5
:100E3000100006490860032000F0A8F80F2000F019
:100E400007F800F02BF8002010BD00000020024041
:100E500070B504460E4800784FF47A71B1FBF0F09B
:100E60000C490968B1FBF0F5284600F0F9FB08B120
:100E7000012070BD102C07D200222146501E00F028
:100E800047F80548046001E00120F2E70020F0E7A0
:100E90000C000020100000200800002008B500BF52
:100EA0001148806940F001000F4988610846806957
:100EB00000F00100009000BF00BF00BF0846C069FD
:100EC00040F08050C8610846C06900F08050009032
:100ED00000BF00BF00BF0549486820F0E06040F057
:100EE0000070486000BF08BD0010024000000140D3
:100EF00001460846002809DB00F01F0301229A4042
:100F000043099B0003F1E023C3F8002100BF7047B1
:100F10002DE9F05F80460D461646002702F00AFADA
:100F2000074639462A46334601F00700C0F1070A52
:100F3000BAF1040F02D94FF0040A01E0C0F1070A28
:100F4000D14600F1040ABAF1070F02D24FF0000AAD
:100F500001E0A0F1030AD4464FF0010A0AFA09FAA7
:100F6000AAF1010A0AEA020A0AFA0CFA4FF0010B86
:100F70000BFA0CFBABF1010B0BEA030B4AEA0B0477
:100F80002146404602F0DEF9BDE8F09F00BF00F0C8
:100F90000702064B19684FF6FF031940044B0B4339
:100FA00043EA0221014B196000BF70470CED00E0DD
:100FB0000000FA0570B504460D460CB9012070BD5D
:100FC0005A48006800F00700A8420ED2574800684F
:100FD00020F007002843554908600846006800F0E3
:100FE0000700A84201D00120E9E7207800F00200C4
:100FF00002281DD1207800F00400042805D14C48B7
:10100000406840F4E0604A494860207800F00800F9
:10101000082805D14648406840F46050444948607B
:101020004348406820F0F000A16808434049486008
:10103000207800F0010078B36068012806D13C48B0
:10104000006800F4003090B90120B8E76068022819
:1010500006D13748006800F0007040B90120AEE7C3
:101060003348006800F0020008B90120A7E73048C3
:10107000406820F00300616808432D494860FFF78D
:10108000C1FE064609E0FFF7BDFE801B41F2883134
:10109000884202D9032092E707E02548406800F023
:1010A0000C006168B0EB810FEDD12048006800F0C2
:1010B0000700A8420ED91D48006820F00700284309
:1010C0001A4908600846006800F00700A84201D0ED
:1010D000012074E7207800F00400042807D11448A8
:1010E000406820F4E060E1680843114948602078D6
:1010F00000F00800082808D10D48406820F460502E
:10110000216940EAC1000A49486000F03FF80849F7
:101110004968C1F30311074A515CC8400649086099
:1011200006480068FFF794FE002048E700200240D0
:10113000001002400E3700081000002008000020B8
:1011400001480068704700001000002000B5FFF75C
:10115000F7FF04494968C1F30221034A515CC840C2
:1011600000BD0000001002401E37000800B5FFF768
:10117000E7FF04494968C1F3C221034A515CC840F2
:1011800000BD0000001002401E37000870B50021AD
:101190000022002400230020134D696801F00C0593
:1011A000F5B1042D02D0082D19D101E00F4819E046
:1011B0000F4DC1F38346AB5D01F4803555B10A4D47
:1011C0006D68C5F340450B4E725D084D5D43B5FB40
:1011D000F2F402E0084D03FB05F4204602E000BFF4
:1011E000024800BF00BF70BD0010024000127A002C
:1011F000FC3600080C37000800093D00F8B504462D
:101200000CB90120F8BD207800F00100002878D04A
:10121000F848406800F00C0004280CD0F5484068FD
:1012200000F00C00082811D1F248406800F480302A
:10123000B0F5803F0AD1EF48006800F40030002884
:101240005FD0606800285CD10120DBE700BF6068E8
:10125000B0F5803F06D1E748006840F48030E549AA
:10126000086028E0606858B9E248006820F48030DF
:10127000E04908600846006820F4802008601AE011
:101280006068B0F5A02F0BD1DA48006840F48020E8
:10129000D84908600846006840F4803008600AE0D9
:1012A000D448006820F48030D249086008460068BD
:1012B00020F48020086000BF606888B1FFF7A2FDBD
:1012C000054606E0FFF79EFD401B642801D9032078
:1012D00098E7C848006800F400300028F2D010E019
:1012E000FFF790FD054606E0FFF78CFD401B6428E4
:1012F00001D9032086E7BF48006800F400300028C9
:10130000F2D1207800F00200022857D1B948406895
:1013100000F00C0050B1B748406800F00C000828FD
:1013200018D1B448406800F4803098B9B1480068DA
:1013300000F0020020B12069012801D0012061E7FE
:10134000AC48006820F0F800616940EAC100A94992
:10135000086033E02069E8B10120A7490860FFF781
:1013600051FD054606E0FFF74DFD401B022801D95F
:10137000032047E79F48006800F002000028F2D0F1
:101380009C48006820F0F800616940EAC100994972
:10139000086013E0002098490860FFF733FD054618
:1013A00006E0FFF72FFD401B022801D9032029E7A3
:1013B0009048006800F002000028F2D1207800F088
:1013C000080008282DD1A069B8B101208B49086018
:1013D000FFF718FD054606E0FFF714FD401B022845
:1013E00001D903200EE78348406A00F0020000287C
:1013F000F2D0012001F068FA13E000207F49086074
:10140000FFF700FD054606E0FFF7FCFC401B022845
:1014100001D90320F6E67748406A00F00200002870
:10142000F2D1207800F00400042873D1002771481D
:10143000C06900F0805070B900BF6E48C06940F0CC
:1014400080506C49C8610846C06900F08050009027
:1014500000BF00BF01276A48006800F48070B0B97F
:101460006748006840F4807065490860FFF7CAFC6F
:10147000054606E0FFF7C6FC401B642801D903209F
:10148000C0E65F48006800F480700028F2D000BF1A
:10149000E068012806D15748006A40F0010055492C
:1014A000086227E0E06858B95248006A20F001005D
:1014B000504908620846006A20F00400086219E0FA
:1014C000E06805280BD14B48006A40F00400494908
:1014D00008620846006A40F0010008620AE04548D8
:1014E000006A20F00100434908620846006A20F0C3
:1014F0000400086200BFE068A0B1FFF783FC054666
:1015000009E0FFF77FFC401B41F28831884202D995
:10151000032077E622E03748006A00F00200002846
:10152000EFD012E0FFF76EFC054608E0FFF76AFC1B
:10153000401B41F28831884201D9032062E62D48E0
:10154000006A00F002000028F0D1012F05D12948DF
:10155000C06920F080502749C86100BFE069C8B366
:101560002448406800F00C00082860D0E069022898
:1015700048D1002020490866FFF744FC054606E0F4
:10158000FFF740FC401B022801D903203AE6194826
:10159000006800F000700028F2D1206AB0F5803FAA
:1015A00007D11448406820F40030A168084311496D
:1015B0004860D4E9080108430E49496821F47411D0
:1015C00008430C49486001200B490866FFF71AFCE4
:1015D000054607E03DE0FFF715FC401B022801D956
:1015E00003200FE60348006800F000700028F2D0E6
:1015F0002FE00000001002400000424280044242FE
:1016000000700040002014490866FFF7FBFB054608
:1016100006E0FFF7F7FB401B022801D90320F1E5A4
:101620000E48006800F000700028F2D111E0E06977
:10163000012800D1E6E50948466806F48031206AB1
:10164000814204D106F47011606A814201D0012008
:10165000D8E50020D6E5000000004242001002401C
:1016600070B504462546681EB0F1807F01D3012085
:101670000FE0681E4FF0E02148610F214FF0FF306E
:1016800001F060FE00204FF0E02188610720086132
:10169000002070BD7047704730B502460B4600BF52
:1016A00092F83C00012801D1022030BD012082F8CF
:1016B0003C0000BF022082F83D00106844681068BA
:1016C000816824F070041868044310684460104D69
:1016D0001068A8420BD01068B0F1804F07D00D4DB4
:1016E0001068A84203D00C4D1068A84205D121F023
:1016F00080015868014310688160012082F83D0034
:1017000000BF002082F83C0000BF00BFCDE7000012
:10171000002C014000040040000800402DE9F04783
:1017200082469AF81C0001286ED138480078D0B95A
:101730000021504600F0ABFB3549086001203349D9
:10174000087000BFDAF80000006A20F00A00DAF83A
:1017500000100862DAF80000006A40F00200DAF8CF
:101760000010086250E02948007801284CD100217F
:10177000504600F08CFB2749086008460068244961
:101780000968884207D92348006821490968401A36
:101790002149086009E01E4800684FF6FF71081AE9
:1017A0001C49096808441C4908601B480068FEF78A
:1017B000E8FD0646194A1A4BFEF702FD04460022D0
:1017C0004FF08043FEF76EFD8046FEF7E7FD1549BA
:1017D000086000200D49087000BFDAF80000006AB8
:1017E00020F00A00DAF800100862DAF80000006A57
:1017F000DAF80010086200BF0B480068C06820F0EB
:10180000020009490968C860BDE8F087240000208B
:101810001C00002020000020280000209CC420B0D4
:101820007268A13F2C000020500300202DE9F041F8
:1018300004460D461646002700BF94F83C000128D8
:1018400002D10220BDE8F081012084F83C0000BFF5
:1018500096B9EB68D5E90012206801F09BF9206881
:10186000806920F00C002168886120688069A9687F
:1018700008432168886141E0042E13D1EB68D5E963
:101880000012206801F0BAF92068806920F44060F5
:101890002168886120688069A96840EA0120216880
:1018A00088612BE0082E12D1EB68D5E90012206880
:1018B00001F0C1F92068C06920F00C002168C861FE
:1018C0002068C069A96808432168C86116E00C2E29
:1018D00013D1EB68D5E90012206801F0C8F920683F
:1018E000C06920F440602168C8612068C069A968A7
:1018F00040EA01202168C86100E0012700BF002004
:1019000084F83C0000BF38469CE710B504460CB98B
:10191000012010BD94F83D0028B9002084F83C0057
:10192000204600F025F8022084F83D00211D2068A3
:1019300001F020F8012084F8460000BF84F83E0042
:1019400001213F200155402001554120015500BF94
:1019500000BF012084F84200432001554420015576
:101960004520015500BF012084F83D000020D0E74C
:1019700010B586B0044600200290039004900590B4
:101980002068B0F1804F2BD100BF1648C06940F0ED
:1019900001001449C8610846C06900F001000190C7
:1019A00000BF00BF00BF0846806940F004008861A6
:1019B0000846806900F00400019000BF00BF0120CC
:1019C000029000200390049002A90748FFF784F8D2
:1019D000002211461C20FFF79BFA1C20FFF788FA13
:1019E00006B010BD001002400008014070B504466A
:1019F0002068C5682068066906F00200022819D12F
:101A000005F00200022815D1401F2168086101205D
:101A100020772068806900F0030018B12046FFF7A6
:101A20007DFE05E0204600F0E3F8204600F0C2F914
:101A30000020207706F00400042819D105F00400E6
:101A4000042815D1C043216808610220207720684E
:101A5000806900F4407018B12046FFF75FFE05E092
:101A6000204600F0C5F8204600F0A4F900202077B9
:101A700006F00800082819D105F00800082815D13B
:101A8000C04321680861042020772068C06900F005
:101A9000030018B12046FFF741FE05E0204600F0A4
:101AA000A7F8204600F086F90020207706F0100005
:101AB000102819D105F01000102815D1C043216855
:101AC0000861082020772068C06900F4407018B1D0
:101AD0002046FFF723FE05E0204600F089F8204667
:101AE00000F068F90020207706F0010048B105F009
:101AF000010030B16FF0010021680861204600F05C
:101B0000C5F906F08000802809D105F08000802802
:101B100005D1C043216808612046FFF7BBFD06F0F0
:101B20004000402809D105F04000402805D1C043BD
:101B300021680861204600F0C3F906F02000202843
:101B400009D105F02000202805D1C0432168086193
:101B50002046FFF7A0FD70BD10B586B004460020FA
:101B600002900390049005901C492068884217D188
:101B700000BF1B48806940F004001949886108468D
:101B8000806900F00400019000BF00BFC0200290F7
:101B900002200390059002A91248FEF79DFF1AE06B
:101BA00011492068884216D100BF0D48806940F075
:101BB00008000B4988610846806900F00800019020
:101BC00000BF00BFC020029002200390059002A930
:101BD0000648FEF781FF06B010BD0000000400407B
:101BE000001002400008014000080040000C0140C5
:101BF00070472DE9F04104460D461646002700BF08
:101C000094F83C00012802D10220BDE8F0810120B7
:101C100084F83C0000BF36B1042E1BD0082E31D012
:101C20000C2E5ED145E02946206800F0F7FE2068C2
:101C3000806940F00800216888612068806920F090
:101C40000400216888612068806929690843216847
:101C5000886148E02946206800F010FF206880690C
:101C600040F40060216888612068806920F4806009
:101C70002168886120688069296940EA012021681B
:101C8000886130E02946206800F02CFF2068C06998
:101C900040F008002168C8612068C06920F0040095
:101CA0002168C8612068C069296908432168C86142
:101CB00019E02946206800F049FF2068C06940F417
:101CC00000602168C8612068C06920F480602168D4
:101CD000C8612068C069296940EA01202168C8619B
:101CE00001E0012700BF00BF00BF002084F83C00D6
:101CF00000BF384689E710B504460CB9012010BD75
:101D000094F83D0028B9002084F83C00204600F0FB
:101D100025F8022084F83D00211D206800F02AFEED
:101D2000012084F8460000BF84F83E0001213F20D6
:101D30000155402001554120015500BF00BF012041
:101D400084F84200432001554420015545200155A7
:101D500000BF012084F83D000020D0E708B5124AFA
:101D6000016891420DD100BF1049C96941F00201DB
:101D70000E4AD1611146C96901F00201009100BF0C
:101D800011E00B4A016891420DD100BF0749C969B2
:101D900041F00401054AD1611146C96901F004010D
:101DA000009100BF00BF08BD0004004000100240C9
:101DB000000800407047000070B504460D4615B994
:101DC00094F83E000BE0042D02D13F20005D06E0B8
:101DD000082D02D14020005D01E04120005D012876
:101DE00001D0012070BD1DB9022084F83E000EE034
:101DF000042D03D102213F20015508E0082D03D115
:101E000002214020015502E002214120015501221A
:101E10002946206800F0F0FD19492068884201D168
:101E2000012000E0002028B12068406C40F4004010
:101E3000216848641249206888420BD02068B0F1BC
:101E4000804F07D00F492068884203D00E49206890
:101E500088420CD12068806800F00706062E0CD05E
:101E60002068006840F001002168086005E02068F3
:101E7000006840F00100216808600020B2E700001F
:101E8000002C01400004004000080040704702465A
:101E9000002031B1042907D0082908D00C290CD121
:101EA00008E01368586B09E01368986B06E0136844
:101EB000D86B03E01368186C00E000BF00BF7047E8
:101EC00070477047704700002DE9F84F04462068BE
:101ED00005682068C668206847694FF00009CA464F
:101EE00005F00F09B9F1000F0AD105F0200038B153
:101EF00006F0200020B1204600F0E3FFBDE8F88F97
:101F0000B9F1000F7BD007F0010018B906F490700A
:101F1000002874D005F0010030B106F4807018B1CB
:101F2000606C40F00100606405F0040030B107F01F
:101F3000010018B1606C40F00200606405F002001E
:101F400030B107F0010018B1606C40F0040060642B
:101F500005F0080048B106F0200010B907F00100B4
:101F600018B1606C40F008006064606C002845D0D7
:101F700005F0200028B106F0200010B1204600F046
:101F8000A0FF20684069C0F3801A606C00F0080070
:101F900010B9BAF1000F2CD0204600F039FF2068AC
:101FA000406900F0400000B300BF00BF2168143159
:101FB00051E8001F21F040002168143141E800027F
:101FC000002AF3D100BFE06B50B17748E16B486362
:101FD000E06BFEF7D9FB88B1E06B416B88470DE001
:101FE0002046FFF76FFF09E009E02046FFF76AFF90
:101FF00004E02046FFF766FF002060647EE7206B68
:10200000012877D105F01000002873D006F01000E9
:102010000028FAD000BF00200090206800680090DF
:1020200020684068009000BF00BF2068406900F051
:10203000400000285FD0E06B006840681FFA80F81D
:10204000B8F1000F55D0A08D404552DDA4F82E8088
:10205000E06B8069202843D000BF00BF21680C31AD
:1020600051E8001F21F4807021680C3141E8000222
:10207000002AF3D100BF00BF00BF2168143151E82E
:10208000001F21F001002168143141E80002002AFC
:10209000F3D100BF00BF00BF2168143151E8001F19
:1020A00021F040002168143141E80002002AF3D1F8
:1020B00000BF202084F842000020206300BF00BF42
:1020C00021680C3151E8001F21F0100021680C310B
:1020D00041E80002002AF3D100BFE06BFEF728FBC5
:1020E00002206063A08DE28D801A81B22046FFF746
:1020F000E8FE03E742E0A08DE18D401A1FFA80F868
:10210000E08DD0B3B8F1000F37D000BF00BF216819
:102110000C3151E8001F21F4907021680C3141E826
:102120000002002AF3D100BF00BF00BF21681431B4
:1021300051E8001F21F001002168143141E800023C
:10214000002AF3D100BF202084F842000020206341
:1021500000BF00BF21680C3151E8001F21F01000C2
:1021600021680C3141E80002002AF3D100BF0220AF
:10217000606341462046FFF7A4FEBFE605F08000FD
:1021800030B106F0800018B1204600F0FBFFB5E644
:1021900005F0400030B106F0400018B1204600F0D4
:1021A0006DFEABE600BFA9E6D52C000810B50446CD
:1021B0000CB9012010BDA06900B100E000BF94F887
:1021C000410028B9002084F84000204600F02AF899
:1021D000242084F841002068C06820F40050216861
:1021E000C860204600F0ECFE2068006920F49040B2
:1021F000216808612068406920F02A002168486150
:102200002068C06840F400502168C8600020606405
:10221000202084F8410084F842000020606300BF61
:10222000C8E7000010B586B0044600200290039075
:102230000490059056492068884237D100BF554820
:10224000806940F48040534988610846806900F401
:102250008040019000BF00BF00BF0846806940F089
:10226000040088610846806900F00400019000BF06
:1022700000BF48150290022003900320059002A998
:102280004548FEF729FC4FF480600290002003903F
:10229000049002A94048FEF71FFC002211462520A9
:1022A000FEF736FE2520FEF723FE6EE03B49206850
:1022B00088426AD100BF3748C06940F400303549D0
:1022C000C8610846C06900F40030019000BF00BF3B
:1022D00000BF0846806940F00400886108468069B4
:1022E00000F00400019000BF00BF04200290022013
:1022F00003900320059002A92748FEF7EDFB082074
:10230000029000200390049002A92348FEF7E4FB0A
:10231000234824490860002048600021214881604A
:102320008021C16000210161416120218161002182
:10233000C161FEF74FFB08B1FEF7F7F900BF19487E
:10234000E063446200BF164814301749086010204B
:1023500048600021144881608021C1600021016132
:1023600041618161C161FEF735FB08B1FEF7DDF91E
:1023700000BF0D48A063446200BF00221146262022
:10238000FEF7C6FD2620FEF7B3FD06B010BD000027
:1023900000380140001002400008014000440040A5
:1023A0006C000240C80200200C03002070B50446F7
:1023B0000D46164694F8420020280BD105B10EB9FF
:1023C000012070BD0020206332462946204600F0DF
:1023D00075FEF6E70220F4E7704770472DE9F84FE5
:1023E00004460E46174699464FF0000A94F84100FD
:1023F000202850D106B117B90120BDE8F88F002080
:102400006064212084F84100FEF7FCFC8246A7842A
:10241000E784A068B0F5805F04D1206910B9002579
:10242000B04602E035464FF000081EE05346002259
:1024300080212046CDF8009000F0D4FE20B120206D
:1024400084F841000320D8E745B9B8F80000C0F38C
:1024500008002168486008F1020803E02878216834
:1024600048606D1CE08C401EE084E08C0028DDD1CB
:102470005346002240212046CDF8009000F0B2FEE5
:1024800020B1202084F841000320B6E7202084F802
:1024900041000020B1E70220AFE7704700BFFEE730
:1024A00008B500BF0E48406940F001000C49486182
:1024B0000846406900F00100009000BF00BF002204
:1024C00011461020FEF724FD1020FEF711FD00221A
:1024D00011461120FEF71CFD1120FEF709FD08BD75
:1024E0000010024000B585B00020019002900390DA
:1024F000049000BF2E48806940F020002C4988617C
:102500000846806900F02000009000BF00BF00BFB7
:102510000846806940F0040088610846806900F040
:102520000400009000BF00BF00BF0846806940F073
:10253000080088610846806900F00800009000BF2C
:1025400000BF002202211B48FEF756FC0122D103E6
:102550001848FEF751FC012238211748FEF74CFCC1
:10256000022001900120029000200390022004909C
:1025700001A91048FEF7B0FA4FF400400190012085
:102580000290002003900120049001A90948FEF761
:10259000A3FA38200190012002900020039001202E
:1025A000049001A90448FEF797FA05B000BD0000A9
:1025B0000010024000080140000C014000B587B047
:1025C00000200590069001900290039004904FF037
:1025D000804016490860002048600021134881604F
:1025E0004FF6FF71C160002101618161FFF78DF934
:1025F00008B1FEF79AF800200590069005A90B484F
:10260000FFF74AF808B1FEF790F80020019001208A
:102610000290002003900490002201A90348FFF7D4
:1026200005F908B1FEF781F807B000BD500300209E
:1026300000B589B00020079008901C216846FDF77E
:102640009AFD1C481C4908604720486000211A4830
:10265000816044F61F61C160002101618161FFF763
:102660004AFB08B1FEF761F800200790089007A91F
:102670001148FFF711F808B1FEF757F860200090F5
:102680000020019002900490002269460A48FFF75A
:10269000B0FA08B1FEF749F8042269460648FFF788
:1026A000A8FA08B1FEF741F80348FFF755FA09B058
:1026B00000BD0000000400409803002000B589B070
:1026C0000020079008901C216846FDF754FD1C4827
:1026D0001C4908604720486000211A48816040F288
:1026E000E731C160002101618161FFF704FB08B19E
:1026F000FEF71BF800200790089007A91148FEF785
:10270000CBFF08B1FEF711F8602000900020019087
:1027100002900490002269460A48FFF76AFA08B15D
:10272000FEF703F8042269460648FFF762FA08B18B
:10273000FDF7FBFF0348FFF70FFA09B000BD0000EB
:1027400000080040E003002010B50B480B4908606A
:102750004FF4E1304860002108488160C1600161A8
:102760000C21416100218161C161FFF71FFD08B1AA
:10277000FDF7DBFF10BD00000038014038020020EB
:1027800010B50B480B4908604FF4E1304860002158
:1027900008488160C16001610C21416100218161B3
:1027A000C161FFF703FD08B1FDF7BFFF10BD0000D9
:1027B000004400408002002000BFFEE710B5044640
:1027C000002208210548FEF717FB012210210348CB
:1027D000FEF712FB02480068446310BD000C014084
:1027E000E003002010B50446012208210548FEF749
:1027F00003FB002210210348FEF7FEFA024800689E
:10280000446310BD000C0140E003002010B500201F
:10281000064909684863002208210548FEF7ECFADA
:10282000002210210248FEF7E7FA10BDE003002065
:10283000000C014010B50446002220210548FEF797
:10284000DBFA0122D1030448FEF7D6FA03480068F8
:10285000846310BD000C014000080140E00300202B
:1028600010B50446012220210648FEF7C5FA0022D1
:102870004FF400410448FEF7BFFA0448006884633F
:1028800010BD0000000C014000080140E0030020E2
:1028900010B50020074909688863002220210648F6
:1028A000FEF7AAFA00224FF400410448FEF7A4FA0A
:1028B00010BD0000E0030020000C014000080140B2
:1028C00000BFFEE77047000008B508490968C9085D
:1028D0004FF47A72B1FBF2F14143009100BF00BFA7
:1028E00000994A1E00920029F9D108BD100000206D
:1028F000704710B5FEF78CFA10BD00B58FB02821D7
:1029000005A8FDF738FC14216846FDF734FC0120CA
:1029100005900004069000200790012009900220F5
:102920000C90C1030D914FF4E0110E9105A8FEF734
:1029300065FC08B1FDF7F9FE0F2000900220019020
:10294000002002904FF4806003904FF4C060049028
:1029500002216846FEF72EFB08B1FDF7E6FE0FB038
:1029600000BD704710B50248FFF740F810BD0000E9
:102970005003002010B502681C4B984208D0B0F1FB
:10298000804F05D01A4B984202D01A4B984203D17F
:1029900022F070024B681A43144B984208D0B0F1F1
:1029A000804F05D0124B984202D0124B984203D16F
:1029B00022F44072CB681A4322F080034C6943EA48
:1029C000040202608B68C3620B688362074B984203
:1029D00001D10B69036301234361036903F0010320
:1029E0001BB1036923F00103036110BD002C0140FA
:1029F000000400400008004030B501F01F0501242C
:102A000004FA05F3046A9C430462046A01F01F059A
:102A100002FA05F52C43046230BD000030B5026AAD
:102A2000056A25F0010505624368846924F0700495
:102A300024F003040D682C4322F002028D682A431F
:102A40000D4DA84206D100BF22F00802CD682A43EE
:102A500022F00402084DA84207D123F4807323F426
:102A600000734D692B438D692B43436084614D682E
:102A70004563026230BD0000002C014030B5026A9F
:102A8000056A25F0100505624368846924F4E04472
:102A900024F440740D6844EA052422F020028D6875
:102AA00042EA05120E4DA84207D100BF22F0800273
:102AB000CD6842EA051222F04002094DA84209D130
:102AC00023F4806323F400634D6943EA85038D6931
:102AD00043EA8503436084614D688563026230BDCB
:102AE000002C014030B5026A056A25F48075056244
:102AF0004368C46924F0700424F003040D682C4377
:102B000022F400728D6842EA05220F4DA84207D1D7
:102B100000BF22F40062CD6842EA052222F48062FE
:102B2000094DA84209D123F4805323F400534D6981
:102B300043EA05138D6943EA05134360C4614D6898
:102B4000C563026230BD0000002C014030B5036A4D
:102B5000056A25F4805505624468C26922F4E042A2
:102B600022F440720D6842EA052223F400538D6876
:102B700043EA0533064DA84204D124F480444D694C
:102B800044EA85144460C2614D680564036230BD47
:102B9000002C014070B50C461546026A066A26F004
:102BA000010606628169124EB04208D0B0F1804F32
:102BB00005D0104EB04202D00F4EB04201D10126D6
:102BC00000E000261EB121F00301294301E041F09D
:102BD000010121F0F001F02606EA0316314322F04C
:102BE0000A0204F00A0632438161026270BD0000ED
:102BF000002C0140000400400008004070B50C4665
:102C00001546026A066A26F010060662816921F4FA
:102C1000407141EA052121F470414FF4704606EA03
:102C20000336314322F0A002A02606EA04163243FE
:102C30008161026270BD70B50C461546026A066A73
:102C400026F480760662C16921F00301294321F050
:102C5000F001F02606EA0316314322F400724FF425
:102C6000007606EA04263243C161026270BD70B587
:102C70000C461546026A066A26F480560662C16949
:102C800021F4407141EA052121F470414FF470466E
:102C900006EA0336314322F400524FF4005606EAA6
:102CA00004363243C161026270BD000010B54FF4BA
:102CB000807206490648FFF779FB05480068C0683E
:102CC00040F0100002490968C86010BD38000020BB
:102CD0008002002070B505466C6A0020E085E08423
:102CE0002046FFF7EFF870BD70B506460025746A00
:102CF00020684069C0F3C01594F84100212805D12F
:102D000025B10020E084204600F0C8F82068406922
:102D1000C0F3801594F84200222805D125B1002087
:102D2000E085204600F074F8606C40F010006064AC
:102D30002046FFF7C7F870BD70B505466C6A286875
:102D4000006800F02000002842D1E08500BF00BFED
:102D500021680C3151E8001F21F4807021680C318A
:102D600041E80002002AF3D100BF00BF00BF216884
:102D7000143151E8001F21F001002168143141E8AD
:102D80000002002AF3D100BF00BF00BF2168143148
:102D900051E8001F21F040002168143141E8000291
:102DA000002AF3D100BF202084F84200206B0128C4
:102DB0000ED100BF00BF21680C3151E8001F21F087
:102DC000100021680C3141E80002002AF3D100BF55
:102DD00000206063206B012804D1A18D2046FFF7FD
:102DE00070F802E02046FFF7F7FA70BD70B50546AF
:102DF0006C6A01206063206B012805D1A08D410819
:102E00002046FFF75EF802E02046FFF7E6FA70BDC5
:102E100000BF00BF02680C3252E8002F22F490710C
:102E200002680C3242E80013002BF3D100BF00BF50
:102E300000BF0268143252E8002F22F0010102683C
:102E4000143242E80013002BF3D100BF016B0129BB
:102E50000ED100BF00BF02680C3252E8002F22F0F2
:102E6000100102680C3242E80013002BF3D100BFBE
:102E7000202180F8421000210163704710B50446FC
:102E80002068C06820F040002168C860202084F8D5
:102E900041002046FFF701FB002010BD00BF00BF2E
:102EA00002680C3252E8002F22F0C00102680C3296
:102EB00042E80013002BF3D100BF202180F841101D
:102EC0007047F8B5044694F84200222875D1A068EE
:102ED000B0F5805F0CD1206950B90025A66A206842
:102EE0004068C0F308003080A06A801CA06215E032
:102EF000A56A0026A068B0F5805F03D0A06828B955
:102F0000206918B920684068287004E0206840688B
:102F100000F07F002870A06A401CA062E08D401E77
:102F200080B2E085002846D12068C06820F02000EB
:102F30002168C8602068C06820F480702168C8607B
:102F40002068406920F0010021684861202084F851
:102F5000420000206063206B012826D100202063FE
:102F600000BF00BF21680C3151E8001F21F01000A4
:102F700021680C3141E80002002AF3D100BF20682B
:102F8000006800F0100010280AD100BF0020009057
:102F900020680068009020684068009000BF00BF73
:102FA000A18D2046FEF78DFF02E02046FFF714FAC0
:102FB0000020F8BD01E00020FBE70220F9E7000057
:102FC00070B504462168096921F44051E268114353
:102FD000226811612269A1681143626941EA020510
:102FE0002168C96841F20C62914329432268D1608B
:102FF0002168496921F44071A26911432268516135
:103000002D4A2168914202D1FEF7B0F801E0FEF7A7
:103010009DF800EBC00101EB001162689200B1FB6A
:10302000F2F100EBC00202EB001263689B00B2FBFE
:10303000F3F26423B2FBF3F202EBC20303EB0212DE
:10304000A1EB8201322202EB01116422B1FBF2F109
:1030500001F0F00100EBC00202EB001263689B007C
:10306000B2FBF3F26423B2FBF3F201EB021200EBCA
:10307000C00101EB001163689B00B1FBF3F100EBB1
:10308000C00303EB00136668B600B3FBF6F36426D7
:10309000B3FBF6F303EBC30606EB0313A1EB8301CB
:1030A000322303EB01116423B1FBF3F101F00F01B3
:1030B00011442268916070BD0038014077B581B03D
:1030C000044615460298A062A5850020606422206F
:1030D00084F842002848E16B88622848E16BC862A6
:1030E0002748E16B08630020E16B486302AE326859
:1030F0002368191D2B46E06BFDF7A0FC00BF0020E4
:10310000009020680068009020684068009000BF30
:1031100000BF206970B100BF00BF21680C3151E8C9
:10312000001F41F4807021680C3141E80002002A40
:10313000F3D100BF00BF00BF2168143151E8001F68
:1031400041F001002168143141E80002002AF3D166
:1031500000BF00BF00BF2168143151E8001F41F0DB
:1031600040002168143141E80002002AF3D100BF79
:10317000002004B070BD0000392D0008ED2D0008BE
:10318000E92C0008014691F84100212828D18868DF
:10319000B0F5805F0BD1086948B90A6A1088C0F39E
:1031A00008000B685860086A801C086205E00B6A1A
:1031B000581C086218780B685860C88C401E80B292
:1031C000C88458B90868C06820F080000B68D860CF
:1031D0000868C06840F040000B68D8600020704765
:1031E0000220FCE72DE9F84304460D4617469846B1
:1031F000089E31E0701C70B3FDF704FEA0EB0800E0
:10320000B04200D816B90320BDE8F8832068C06832
:1032100000F00400F8B1802D1ED0402D1CD0206895
:103220000068C0F3C000B0B100BF0020009020686B
:103230000068009020684068009000BF00BF2046F2
:10324000FFF7E6FD0820606400BF002084F840001E
:1032500000BF0120D8E7FFE7206800682840A842A7
:1032600001D1012000E00020B842C3D00020CBE70C
:1032700010B50248FEF728FE10BD000038020020FD
:1032800008B5224800680068C0F30010002839D053
:103290001F480068006820F001001D4909680860A7
:1032A0001B480068406840421A4908700846027886
:1032B00019491A48FCF746FF642316480278174953
:1032C0001248FFF78BF813480178134800F00AFA08
:1032D0004FF480700E49096848600D480068006826
:1032E00040F001000A490968086000BF0020009012
:1032F0000648006800680090044800684068009034
:1033000000BF00BF0148FEF7DFFD08BD80020020BE
:10331000C8020020000000203800002038010020F2
:1033200000BFFEE7014A024900F033B855340008F7
:103330003000002002480068C0F3022070470000FF
:103340000CED00E010B5002804DB0A07130E054A57
:10335000135406E00A07140E034A00F00F031B1F64
:10336000D45410BD00E400E018ED00E000487047C0
:103370003400002002E008C8121F08C1002AFAD158
:1033800070477047002001E001C1121F002AFBD1E5
:1033900070472DE9F04116460F460446002503E02C
:1033A0003946B047641C6D1C20780028F8D12846A7
:1033B000BDE8F08110B540F2E730FDF75CF902A0FE
:1033C000FFF7B0FF10BD0000737461747573206265
:1033D00061636B0D0A00000010B51448007930B12C
:1033E0001249087800F030F900201049087110489F
:1033F0000078062816D2DFE800F00306090C0F1249
:1034000000F036F80FE000F015F80CE0FFF7D2FFFF
:1034100009E000F03DF806E000F0F2F803E000F00B
:1034200003F900E000BF00BF10BD0000160000203F
:103430001400002010B540F2E730FDF725F902A096
:10344000FFF770FF10BD000073746174757320671F
:103450006F0D0A0013B50C464FF0FF330122694689
:103460000248FEF7BBFF00981CBD00003802002098
:1034700010B5FDF712F902A0FFF754FF10BD0000D0
:1034800073746174757320667265650D0A000000BF
:1034900010B540F2E730FDF706F902A0FFF742FF52
:1034A00010BD0000737461747573207475726E6C56
:1034B0006566740D0A000000FDF7B6FCFFF71DFA03
:1034C000FFF710F8FEF7ECFFFFF778F8FFF73CF98D
:1034D000FFF756F9FFF7ACF8FFF7F0F8FFF7E6FB58
:1034E00000210548FEF768FC04210348FEF764FC50
:1034F00001E0FFF771FFFCE7E00300207CB5054623
:103500000C46002030490871042C00DA7CBD0422EE
:103510002EA12846FCF73AFE20B901202A4908705E
:1035200008714FE004222BA12846FCF72FFE28B992
:103530000220254908700120087143E0042227A1D8
:103540002846FCF723FE28B903201F4908700120F4
:10355000087137E0042223A12846FCF717FE28B99A
:10356000042019490870012008712BE004221FA1D2
:103570002846FCF70BFE28B90020134908700120EB
:1035800008711FE02878562819D10020009001907A
:10359000601E072812D2621E691C6846FCF7D2FD25
:1035A0000520094908706846FCF7FDFD064948807A
:1035B00008464088B42801DC0120087102E00DA013
:1035C000FFF7B0FE00BFA1E716000020636D644660
:1035D00000000000636D644200000000636D644CF5
:1035E00000000000636D645200000000636D6453CE
:1035F00000000000756E6B6E6F776E0D0A000000A4
:1036000010B540F2E730FDF75BF802A0FFF78AFE45
:1036100010BD0000737461747573207475726E72DE
:10362000696768740D0A000010B5FDF736F802A04E
:10363000FFF778FE10BD000073746174757320731A
:10364000746F700D0A00000025490978062943D2DD
:10365000DFE801F003222324250400BF052818D247
:10366000DFE800F01303070B0F0001211C4A117063
:1036700010E002211A4A11700CE00321184A11705F
:1036800008E00421164A117004E00521144A117063
:1036900000E000BF00BF20E000BF00BF00BF18B9BE
:1036A00005210F4A117016E0012803D101210C4AAF
:1036B000117010E0022803D10221094A11700AE0BA
:1036C000032803D10321064A117004E0042802D123
:1036D0000421034A117000E000BF00BF70470000E2
:1036E0001400002070B505460C4604B970BD214693
:1036F0002846FFF703FF002400BFF7E70203040595
:10370000060708090A0B0C0D0E0F1010010200002D
:103710000000000000000102030406070809000081
:10372000000001020304004040404040404040404F
:103730004141414141404040404040404040404084
:1037400040404040404040050202020202020202A4
:10375000020202020202022020202020202020203B
:1037600020020202020202029090909090901010AB
:103770001010101010101010101010101010101049
:1037800010100202020202028888888888880808CD
:1037900008080808080808080808080808080808A9
:1037A000080802020202400027370008CC37000850
:1037B00000000020380000007433000804380008BE
:1037C00038000020F00700008433000800000000EB
:1037D00000000000100000000100000000127A004C
:1037E00005000000000000000000000000000000D4
:1037F00000000000000000000000000000000000C9
:0438000000000000C4
:04000005080000ED02
:00000001FF
